S01300004456445F434E435F4D43552E73726563BC
S11300000C9432000C944F000C944F000C942F0766
S11300100C9408070C94DD060C94B4060C948B061F
S11300200C944F060C9493050C944F000C944F00C1
S11300300C944F000C944F000C944F000C944F0000
S11300400C944F000C944F000C944F000C94BA0580
S11300500C944F009504A604B704C804D904EA0418
S1130060FB040C0511241FBECFE5D4E0DEBFCDBFD9
S113007010E0A0E6B0E0E4E8FFE002C005900D92D5
S1130080A637B107D9F720E0A6E7B0E001C01D927A
S1130090A73DB207E1F70E94BA000C94C0070C9484
S11300A0000060E072E18AE790E0089510927E001B
S11300B010927F0010928000109281006FEF7FEF0A
S11300C088EA90E00E941F0580E00E94510381119C
S11300D0F5CF089510927A0010927B0010927C0064
S11300E010927D0061E070E085E990E00E941F05B8
S11300F080E00E9451038111F5CF0895109276009B
S11301001092770010927800109279006FEF7FEFD1
S113011082E890E00E941F0583EB0E945103811145
S1130120F5CF089519C061E070E082E890E00E9484
S11301301F058091760090917700A0917800B0918E
S113014079000196A11DB11D8093760090937700EC
S1130150A0937800B0937900809176009091770015
S1130160A0917800B091790084369105A105B1057C
S1130170D4F2089560E875E280E090E00E94810383
S1130180812CA12C0F2EF0ECCF2EF02D0F2EF5ED9F
S1130190EF2EF02D05EA24EA48E250E068E082E818
S11301A090E00E94B7030F2EF2EDCF2EF02D0F2E0C
S11301B0F7EDEF2EF02D01EA20EA48E250E068E086
S11301C085E990E00E94B7030F2EF3EBAF2EF02DDC
S11301D00F2EF4EDCF2EF02D0F2EF3EDEF2EF02D8C
S11301E002EA23EA48E250E068E088EA90E00E94EC
S11301F0B70368EC70E088EA90E00E94FD0368ECC5
S113020070E085E990E00E94FD0368EC70E082E80C
S113021090E00E94FD030E9456000E946A000E9422
S11302207E000E94AF03C82F8835F1F580917E00CF
S113023090917F00A0918000B09181000196A11D52
S1130240B11D80937E0090937F00A0938000B093B3
S11302508100409168005091690060916A0070913A
S11302606B00481759076A077B07BCF485E40E94B2
S1130270B30380917E0090917F00A0918000B091A3
S113028081000197A109B10980937E0090937F00BA
S1130290A0938000B0938100C4CF61E070E088EA4D
S11302A090E00E941F0564C1883799F580917E0013
S11302B090917F00A0918000B09181000197A109E5
S11302C0B10980937E0090937F00A0938000B09347
S11302D08100BB23BCF485E40E94B30380917E00BB
S11302E090917F00A0918000B09181000196A11DA2
S11302F0B11D80937E0090937F00A0938000B09303
S113030081008FCF6FEF7FEF88EA90E00E941F0596
S11303102FC18935F1F580917A0090917B00A091ED
S11303207C00B0917D000196A11DB11D80937A00DF
S113033090937B00A0937C00B0937D004091640077
S113034050916500609166007091670048175907E5
S11303506A077B07BCF485E40E94B30380917A00AA
S113036090917B00A0917C00B0917D000197A10940
S1130370B10980937A0090937B00A0937C00B093A2
S11303807D004FCF61E070E085E990E00E941F0599
S1130390EFC0893799F580917A0090917B00A09104
S11303A07C00B0917D000197A109B10980937A0086
S11303B090937B00A0937C00B0937D00BB23BCF49E
S11303C085E40E94B30380917A0090917B00A09110
S11303D07C00B0917D000196A11DB11D80937A002F
S11303E090937B00A0937C00B0937D001ACF6FEFB5
S11303F07FEF85E990E00E941F05BAC08A35F1F5C8
S11304008091760090917700A0917800B091790066
S11304100196A11DB11D8093760090937700A0935F
S11304207800B09379004091600050916100609130
S1130430620070916300481759076A077B07BCF490
S113044085E40E94B3038091760090917700A09197
S11304507800B09179000197A109B10980937600E1
S113046090937700A0937800B0937900DACE61E09E
S113047070E082E890E00E941F057AC08A3799F5FF
S11304808091760090917700A0917800B0917900E6
S11304900197A109B1098093760090937700A09306
S11304A07800B0937900BB23BCF485E40E94B303C5
S11304B08091760090917700A0917800B0917900B6
S11304C00196A11DB11D8093760090937700A093AF
S11304D07800B0937900A5CE6FEF7FEF82E890E0CB
S11304E00E941F0545C0883419F40E94920040C040
S11304F0883619F40E947E003BC0803339F40E9490
S113050056000E946A000E947E0032C0823381F548
S113051080917E0090917F00A0918000B091810035
S11305208093680090936900A0936A00B0936B0075
S113053080917A0090917B00A0917C00B0917D0025
S11305408093640090936500A0936600B093670065
S11305508091760090917700A0917800B091790015
S11305608093600090936100A0936200B093630055
S11305708C2F0E94B30355CE99E8899F912D1124A5
S11305809695969596952FE0929FA0011124282F79
S113059030E02A503109241735070CF49150292FE3
S11305A030E0F901EE0FFF1F2E0F3F1FEE27FF274C
S11305B0E21BF30BE85AFF4F40E1949F801911248A
S11305C0613069F421E030E0A90102C0440F551FF5
S11305D08A95E2F7CA019081892B8083089561117D
S11305E00DC021E030E0A90102C0440F551F8A95D7
S11305F0E2F7CA018095908189238083089599E860
S1130600899F912D11249695969596952FE0929F0A
S1130610A0011124282F30E02A503109241735076E
S11306200CF49150292F30E0F901EE0FFF1F2E0F2B
S11306303F1FEE27FF27E21BF30BE75AFF4F40E172
S1130640949F8019112461110EC021E030E0A901AA
S113065002C0440F551F8A95E2F7CA018095908124
S1130660892380830895613069F421E030E0A90191
S113067002C0440F551F8A95E2F7CA019081892B65
S113068080830895623061F421E030E0A90102C062
S1130690440F551F8A95E2F7CA0190818927808308
S11306A0089599E8899F912D11249695969596958C
S11306B02FE0929FA0011124282F30E02A50310905
S11306C0241735070CF49150292F30E0F901EE0F6F
S11306D0FF1F2E0F3F1FEE27FF27E21BF30BE95AE4
S11306E0FF4F40E1949F8019112421E030E0A901DB
S11306F002C0440F551F8A95E2F7CA0190818923ED
S113070008952AB128612AB920B5266820BDDC01E4
S1130710CB01880F991FAA1FBB1F880F991FAA1FFF
S1130720BB1F9C01AD01220F331F441F551F220F15
S1130730331F441F551F60E072E18AE790E00E9476
S11307406A078FEF820F89B9DA01C9010197A109FC
S1130750B109892F9A2FAB2FBB2780BD08955F9BCA
S1130760FECF8CB108955D9BFECF8CB908956F9236
S11307707F928F92AF92CF92EF920F931F93CF936A
S1130780DF93CDB7DEB73C01FC01618B5087478313
S113079020830183E282C38210E008C0F301E10FE9
S11307A0F11D61E080810E94BC021F5F1430B0F330
S11307B0F301A482828A60E08A2D0E94BC02682D23
S11307C08A2D0E94FF02F301158616861786108A69
S11307D000E010E020E040E060E083E00E94E105FA
S11307E00E941606DF91CF911F910F91EF90CF9049
S11307F0AF908F907F906F900895CF92DF92EF9299
S1130800FF920F931F93CF93DF93EC018B010E9410
S113081051009B01AC01ACE3B0E00E94A1072F8121
S1130820388540E050E00E946A07CA01B901980186
S113083040E050E00E946A0769017A010E94440680
S11308409C0140E050E0C701B6010E946A07298775
S11308503A874B875C87DF91CF911F910F91FF906F
S1130860EF90DF90CF900895CF93DF93EC018989C7
S1130870843009F04CC06130B9F028F0623029F1BD
S11308806330A1F1D9C061E088810E94FF0260E079
S113089089810E94FF0261E08A810E94FF0260E078
S11308A08B810E94FF02C8C060E088810E94FF0221
S11308B061E089810E94FF0261E08A810E94FF0257
S11308C060E08B810E94FF02B7C060E088810E94D3
S11308D0FF0261E089810E94FF0260E08A810E9438
S11308E0FF0261E08B810E94FF02A6C061E0888163
S11308F00E94FF0260E089810E94FF0260E08A8119
S11309000E94FF0261E08B810E94FF0295C0883043
S113091009F092C0862F90E08830910508F08CC0D1
S1130920FC01E65DFF4F0C948C0761E088810E9416
S1130930FF0260E089810E94FF0260E08A810E94D8
S1130940FF0260E08B810E94FF0276C061E0888133
S11309500E94FF0260E089810E94FF0261E08A81B7
S11309600E94FF0260E08B810E94FF0265C060E08C
S113097088810E94FF0260E089810E94FF0261E099
S11309808A810E94FF0260E08B810E94FF0254C0B2
S113099060E088810E94FF0261E089810E94FF0279
S11309A061E08A810E94FF0260E08B810E94FF0265
S11309B043C060E088810E94FF0261E089810E9457
S11309C0FF0260E08A810E94FF0260E08B810E9446
S11309D0FF0232C060E088810E94FF0261E08981E9
S11309E00E94FF0260E08A810E94FF0261E08B8125
S11309F00E94FF0221C060E088810E94FF0260E043
S1130A0089810E94FF0260E08A810E94FF0261E006
S1130A108B810E94FF0210C061E088810E94FF0266
S1130A2060E089810E94FF0260E08A810E94FF02E7
S1130A3061E08B810E94FF02DF91CF9108954F9274
S1130A405F926F927F928F929F92AF92BF92EF923A
S1130A50FF920F931F93CF93DF938C01EB01E12C53
S1130A60F12C47C00E942806F80185849684A78447
S1130A70B0882B013C01481859086A087B08818416
S1130A809284A384B484481459046A047B0488F1CE
S1130A90658776878787908B1C161D066CF4858185
S1130AA096810196968385832781308582179307E3
S1130AB091F4168215820FC0F80185819681892BE5
S1130AC021F48781908596838583F80185819681B9
S1130AD0019796838583F80185819681618970E009
S1130AE00E945607682FC8010E943404FFEFEF1AD2
S1130AF0FF0ACE01DD2324F4882799278C1B9D0B44
S1130B00E816F9060CF4AECFDF91CF911F910F9147
S1130B10FF90EF90BF90AF909F908F907F906F90D9
S1130B205F904F9008951F920F920FB60F92112469
S1130B302F933F934F935F936F937F938F939F93E1
S1130B40AF93BF93EF93FF93E091D300F091D40060
S1130B500995FF91EF91BF91AF919F918F917F91F3
S1130B606F915F914F913F912F910F900FBE0F9016
S1130B701F9018951F920F920FB60F9211242F9366
S1130B803F934F935F936F937F938F939F93AF9311
S1130B90BF93EF93FF93E091BD00F091BE000995E0
S1130BA0FF91EF91BF91AF919F918F917F916F9141
S1130BB05F914F913F912F910F900FBE0F901F9017
S1130BC018950F931F9390E4499FA001112490E17D
S1130BD0299F90011124962F9370492B242B2FBD0C
S1130BE0262F2C7030E0220F331F282B2EBD1DBD65
S1130BF00CBD8093C3006093CC001F910F910895A6
S1130C0049B7282F30E02E5F3F4F81E090E002C0CB
S1130C10880F991F2A95E2F7942F982B99BF98B7BC
S1130C20892B88BF8FB780688FBF08951092CF003B
S1130C301092D0001092D1001092D20080E00E9455
S1130C4000068CB59DB59093BC008093BB000895BD
S1130C502CB53DB58091CF009091D000A091D100EA
S1130C60B091D200DC0199278827820F931FA11D20
S1130C70B11D2091BB003091BC00BC01CD01621BB1
S1130C80730B810991090895E091C300F0E0319755
S1130C90EE0FFF1FE459FF4F8081918108951F9249
S1130CA00F920FB60F9211242F933F934F935F939C
S1130CB06F937F938F939F93AF93BF93EF93FF9320
S1130CC08091CF009091D000A091D100B091D2003A
S1130CD00196A11DB11D8093CF009093D000A093E5
S1130CE0D100B093D200E091C600F091C7003097D4
S1130CF009F00995FF91EF91BF91AF919F918F9169
S1130D007F916F915F914F913F912F910F900FBE03
S1130D100F901F9018951F920F920FB60F921124E7
S1130D202F933F934F935F936F937F938F939F93EF
S1130D30AF93BF93EF93FF93E091C800F091C90084
S1130D40309709F00995FF91EF91BF91AF919F9171
S1130D508F917F916F915F914F913F912F910F9060
S1130D600FBE0F901F9018951F920F920FB60F92FF
S1130D7011242F933F934F935F936F937F938F939C
S1130D809F93AF93BF93EF93FF93E091CA00F091C9
S1130D90CB00309709F00995FF91EF91BF91AF9186
S1130DA09F918F917F916F915F914F913F912F917F
S1130DB00F900FBE0F901F9018951F920F920FB6B1
S1130DC00F9211242F933F934F935F936F937F93CD
S1130DD08F939F93AF93BF93EF93FF93E091BF00E3
S1130DE0F091C000309719F086B597B50995FF9139
S1130DF0EF91BF91AF919F918F917F916F915F918F
S1130E004F913F912F910F900FBE0F901F90189507
S1130E101F920F920FB60F9211242F933F934F936B
S1130E205F936F937F938F939F93AF93BF93EF934E
S1130E30FF93E091D300F091D4000995FF91EF91D5
S1130E40BF91AF919F918F917F916F915F914F91DE
S1130E503F912F910F900FBE0F901F9018951F92E6
S1130E600F920FB60F9211242F933F934F935F93DA
S1130E706F937F938F939F93AF93BF93EF93FF935E
S1130E80E091BD00F091BE000995FF91EF91BF91F3
S1130E90AF919F918F917F916F915F914F913F910E
S1130EA02F910F900FBE0F901F90189597FB072E50
S1130EB016F4009407D077FD09D00E94AC0707FC14
S1130EC005D03EF4909581959F4F08957095619556
S1130ED07F4F0895A1E21A2EAA1BBB1BFD010DC072
S1130EE0AA1FBB1FEE1FFF1FA217B307E407F507D6
S1130EF020F0A21BB30BE40BF50B661F771F881FB2
S1130F00991F1A9469F760957095809590959B0147
S1130F10AC01BD01CF010895EE0FFF1F0590F491C0
S1130F20E02D0994A29FB001B39FC001A39F700D4F
S1130F30811D1124911DB29F700D811D1124911DDD
S1130F4008950E949207A59F900DB49F900DA49FB1
S1130F50800D911D11240895AA1BBB1B51E107C0EC
S1130F60AA1FBB1FA617B70710F0A61BB70B881F35
S1130F70991F5A95A9F780959095BC01CD010895C4
S1070F80F894FFCF0F
S1130F8440420F0040420F0040420F00010008009D
S1090F944000000100040E
S9030000FC
